{
  "contractName": "main",
  "abi": [
    {
      "inputs": [],
      "payable": false,
      "stateMutability": "nonpayable",
      "type": "constructor"
    },
    {
      "constant": true,
      "inputs": [
        {
          "internalType": "address",
          "name": "",
          "type": "address"
        }
      ],
      "name": "accounts",
      "outputs": [
        {
          "internalType": "address payable",
          "name": "author",
          "type": "address"
        },
        {
          "internalType": "uint256",
          "name": "donated",
          "type": "uint256"
        },
        {
          "internalType": "uint256",
          "name": "received",
          "type": "uint256"
        }
      ],
      "payable": false,
      "stateMutability": "view",
      "type": "function"
    },
    {
      "constant": true,
      "inputs": [],
      "name": "admin",
      "outputs": [
        {
          "internalType": "address",
          "name": "",
          "type": "address"
        }
      ],
      "payable": false,
      "stateMutability": "view",
      "type": "function"
    },
    {
      "constant": true,
      "inputs": [],
      "name": "banCount",
      "outputs": [
        {
          "internalType": "uint256",
          "name": "",
          "type": "uint256"
        }
      ],
      "payable": false,
      "stateMutability": "view",
      "type": "function"
    },
    {
      "constant": true,
      "inputs": [
        {
          "internalType": "uint256",
          "name": "",
          "type": "uint256"
        }
      ],
      "name": "bannedNews",
      "outputs": [
        {
          "internalType": "bool",
          "name": "status",
          "type": "bool"
        },
        {
          "internalType": "uint256",
          "name": "newsId",
          "type": "uint256"
        },
        {
          "internalType": "string",
          "name": "reason",
          "type": "string"
        },
        {
          "internalType": "address",
          "name": "informer",
          "type": "address"
        }
      ],
      "payable": false,
      "stateMutability": "view",
      "type": "function"
    },
    {
      "constant": true,
      "inputs": [
        {
          "internalType": "string",
          "name": "",
          "type": "string"
        },
        {
          "internalType": "uint256",
          "name": "",
          "type": "uint256"
        }
      ],
      "name": "communityAuthors",
      "outputs": [
        {
          "internalType": "address",
          "name": "",
          "type": "address"
        }
      ],
      "payable": false,
      "stateMutability": "view",
      "type": "function"
    },
    {
      "constant": true,
      "inputs": [
        {
          "internalType": "string",
          "name": "",
          "type": "string"
        },
        {
          "internalType": "uint256",
          "name": "",
          "type": "uint256"
        }
      ],
      "name": "communityNews",
      "outputs": [
        {
          "internalType": "uint256",
          "name": "",
          "type": "uint256"
        }
      ],
      "payable": false,
      "stateMutability": "view",
      "type": "function"
    },
    {
      "constant": true,
      "inputs": [],
      "name": "communityNumber",
      "outputs": [
        {
          "internalType": "uint256",
          "name": "",
          "type": "uint256"
        }
      ],
      "payable": false,
      "stateMutability": "view",
      "type": "function"
    },
    {
      "constant": true,
      "inputs": [],
      "name": "currentCount",
      "outputs": [
        {
          "internalType": "uint256",
          "name": "",
          "type": "uint256"
        }
      ],
      "payable": false,
      "stateMutability": "view",
      "type": "function"
    },
    {
      "constant": true,
      "inputs": [
        {
          "internalType": "uint256",
          "name": "",
          "type": "uint256"
        }
      ],
      "name": "newsById",
      "outputs": [
        {
          "internalType": "uint256",
          "name": "timestamp",
          "type": "uint256"
        },
        {
          "internalType": "string",
          "name": "descreption",
          "type": "string"
        },
        {
          "internalType": "string",
          "name": "title",
          "type": "string"
        },
        {
          "internalType": "uint256",
          "name": "id",
          "type": "uint256"
        },
        {
          "internalType": "address",
          "name": "author",
          "type": "address"
        },
        {
          "internalType": "string",
          "name": "categories",
          "type": "string"
        },
        {
          "internalType": "uint256",
          "name": "donations",
          "type": "uint256"
        },
        {
          "internalType": "string",
          "name": "communityId",
          "type": "string"
        },
        {
          "internalType": "bool",
          "name": "communityNews",
          "type": "bool"
        },
        {
          "internalType": "string",
          "name": "ipfsImage",
          "type": "string"
        }
      ],
      "payable": false,
      "stateMutability": "view",
      "type": "function"
    },
    {
      "constant": true,
      "inputs": [
        {
          "internalType": "uint256",
          "name": "",
          "type": "uint256"
        },
        {
          "internalType": "uint256",
          "name": "",
          "type": "uint256"
        }
      ],
      "name": "newsDownVote",
      "outputs": [
        {
          "internalType": "address payable",
          "name": "",
          "type": "address"
        }
      ],
      "payable": false,
      "stateMutability": "view",
      "type": "function"
    },
    {
      "constant": true,
      "inputs": [
        {
          "internalType": "address",
          "name": "",
          "type": "address"
        },
        {
          "internalType": "uint256",
          "name": "",
          "type": "uint256"
        }
      ],
      "name": "newsForAccounts",
      "outputs": [
        {
          "internalType": "uint256",
          "name": "",
          "type": "uint256"
        }
      ],
      "payable": false,
      "stateMutability": "view",
      "type": "function"
    },
    {
      "constant": true,
      "inputs": [
        {
          "internalType": "address",
          "name": "",
          "type": "address"
        },
        {
          "internalType": "uint256",
          "name": "",
          "type": "uint256"
        }
      ],
      "name": "newsForAuthor",
      "outputs": [
        {
          "internalType": "uint256",
          "name": "",
          "type": "uint256"
        }
      ],
      "payable": false,
      "stateMutability": "view",
      "type": "function"
    },
    {
      "constant": true,
      "inputs": [
        {
          "internalType": "uint256",
          "name": "",
          "type": "uint256"
        },
        {
          "internalType": "uint256",
          "name": "",
          "type": "uint256"
        }
      ],
      "name": "newsUpVote",
      "outputs": [
        {
          "internalType": "address payable",
          "name": "",
          "type": "address"
        }
      ],
      "payable": false,
      "stateMutability": "view",
      "type": "function"
    },
    {
      "constant": true,
      "inputs": [
        {
          "internalType": "uint256",
          "name": "",
          "type": "uint256"
        },
        {
          "internalType": "uint256",
          "name": "",
          "type": "uint256"
        }
      ],
      "name": "tagForNews",
      "outputs": [
        {
          "internalType": "string",
          "name": "",
          "type": "string"
        }
      ],
      "payable": false,
      "stateMutability": "view",
      "type": "function"
    },
    {
      "constant": true,
      "inputs": [
        {
          "internalType": "string",
          "name": "",
          "type": "string"
        }
      ],
      "name": "tags",
      "outputs": [
        {
          "internalType": "address",
          "name": "author",
          "type": "address"
        },
        {
          "internalType": "address",
          "name": "taggedPerson",
          "type": "address"
        },
        {
          "internalType": "uint256",
          "name": "react",
          "type": "uint256"
        },
        {
          "internalType": "string",
          "name": "taggedPersonDescreption",
          "type": "string"
        },
        {
          "internalType": "uint256",
          "name": "newsId",
          "type": "uint256"
        }
      ],
      "payable": false,
      "stateMutability": "view",
      "type": "function"
    },
    {
      "constant": false,
      "inputs": [
        {
          "internalType": "string",
          "name": "_hashedaddr",
          "type": "string"
        },
        {
          "internalType": "string",
          "name": "_title",
          "type": "string"
        },
        {
          "internalType": "uint256",
          "name": "_time",
          "type": "uint256"
        },
        {
          "internalType": "string",
          "name": "_descreption",
          "type": "string"
        },
        {
          "internalType": "string",
          "name": "_categories",
          "type": "string"
        },
        {
          "internalType": "string",
          "name": "_community",
          "type": "string"
        },
        {
          "internalType": "bool",
          "name": "_iscommunitynews",
          "type": "bool"
        },
        {
          "internalType": "string",
          "name": "_ipfsImage",
          "type": "string"
        }
      ],
      "name": "createNews",
      "outputs": [],
      "payable": false,
      "stateMutability": "nonpayable",
      "type": "function"
    },
    {
      "constant": false,
      "inputs": [
        {
          "internalType": "address",
          "name": "_taggedPerson",
          "type": "address"
        },
        {
          "internalType": "uint256",
          "name": "_newsId",
          "type": "uint256"
        },
        {
          "internalType": "string",
          "name": "_tagId",
          "type": "string"
        }
      ],
      "name": "tagRelatedPeople",
      "outputs": [],
      "payable": false,
      "stateMutability": "nonpayable",
      "type": "function"
    },
    {
      "constant": false,
      "inputs": [
        {
          "internalType": "string",
          "name": "_tagId",
          "type": "string"
        },
        {
          "internalType": "uint256",
          "name": "_reactId",
          "type": "uint256"
        },
        {
          "internalType": "string",
          "name": "_descreption",
          "type": "string"
        }
      ],
      "name": "changeTagDetails",
      "outputs": [],
      "payable": false,
      "stateMutability": "nonpayable",
      "type": "function"
    },
    {
      "constant": false,
      "inputs": [
        {
          "internalType": "uint256",
          "name": "_newsId",
          "type": "uint256"
        },
        {
          "internalType": "string",
          "name": "_reason",
          "type": "string"
        },
        {
          "internalType": "address",
          "name": "_informer",
          "type": "address"
        },
        {
          "internalType": "bool",
          "name": "_status",
          "type": "bool"
        }
      ],
      "name": "banNews",
      "outputs": [],
      "payable": false,
      "stateMutability": "nonpayable",
      "type": "function"
    },
    {
      "constant": false,
      "inputs": [
        {
          "internalType": "string",
          "name": "_communityId",
          "type": "string"
        }
      ],
      "name": "createCommunity",
      "outputs": [],
      "payable": false,
      "stateMutability": "nonpayable",
      "type": "function"
    },
    {
      "constant": false,
      "inputs": [
        {
          "internalType": "string",
          "name": "_communityId",
          "type": "string"
        },
        {
          "internalType": "address",
          "name": "_author",
          "type": "address"
        }
      ],
      "name": "addAuthorToCommunity",
      "outputs": [],
      "payable": false,
      "stateMutability": "nonpayable",
      "type": "function"
    },
    {
      "constant": false,
      "inputs": [
        {
          "internalType": "uint256",
          "name": "_newsId",
          "type": "uint256"
        },
        {
          "internalType": "bool",
          "name": "isUpVote",
          "type": "bool"
        }
      ],
      "name": "vote",
      "outputs": [],
      "payable": false,
      "stateMutability": "nonpayable",
      "type": "function"
    },
    {
      "constant": false,
      "inputs": [
        {
          "internalType": "uint256",
          "name": "_newsId",
          "type": "uint256"
        }
      ],
      "name": "payUpVoters",
      "outputs": [],
      "payable": true,
      "stateMutability": "payable",
      "type": "function"
    },
    {
      "constant": false,
      "inputs": [
        {
          "internalType": "uint256",
          "name": "_newsId",
          "type": "uint256"
        }
      ],
      "name": "payDownVoters",
      "outputs": [],
      "payable": true,
      "stateMutability": "payable",
      "type": "function"
    },
    {
      "constant": true,
      "inputs": [
        {
          "internalType": "address",
          "name": "_id",
          "type": "address"
        }
      ],
      "name": "getAuthorNews",
      "outputs": [
        {
          "internalType": "uint256[]",
          "name": "",
          "type": "uint256[]"
        }
      ],
      "payable": false,
      "stateMutability": "view",
      "type": "function"
    },
    {
      "constant": true,
      "inputs": [
        {
          "internalType": "address",
          "name": "_id",
          "type": "address"
        }
      ],
      "name": "getAccountNews",
      "outputs": [
        {
          "internalType": "uint256[]",
          "name": "",
          "type": "uint256[]"
        }
      ],
      "payable": false,
      "stateMutability": "view",
      "type": "function"
    },
    {
      "constant": true,
      "inputs": [
        {
          "internalType": "uint256",
          "name": "_id",
          "type": "uint256"
        }
      ],
      "name": "getNews",
      "outputs": [
        {
          "components": [
            {
              "internalType": "uint256",
              "name": "timestamp",
              "type": "uint256"
            },
            {
              "internalType": "string",
              "name": "descreption",
              "type": "string"
            },
            {
              "internalType": "string",
              "name": "title",
              "type": "string"
            },
            {
              "internalType": "uint256",
              "name": "id",
              "type": "uint256"
            },
            {
              "internalType": "address",
              "name": "author",
              "type": "address"
            },
            {
              "internalType": "string",
              "name": "categories",
              "type": "string"
            },
            {
              "internalType": "uint256",
              "name": "donations",
              "type": "uint256"
            },
            {
              "internalType": "string",
              "name": "communityId",
              "type": "string"
            },
            {
              "internalType": "bool",
              "name": "communityNews",
              "type": "bool"
            },
            {
              "internalType": "string",
              "name": "ipfsImage",
              "type": "string"
            }
          ],
          "internalType": "struct main.news",
          "name": "",
          "type": "tuple"
        }
      ],
      "payable": false,
      "stateMutability": "view",
      "type": "function"
    },
    {
      "constant": true,
      "inputs": [
        {
          "internalType": "uint256",
          "name": "_id",
          "type": "uint256"
        }
      ],
      "name": "getNewsUpVote",
      "outputs": [
        {
          "internalType": "address payable[]",
          "name": "",
          "type": "address[]"
        }
      ],
      "payable": false,
      "stateMutability": "view",
      "type": "function"
    },
    {
      "constant": true,
      "inputs": [
        {
          "internalType": "uint256",
          "name": "_id",
          "type": "uint256"
        }
      ],
      "name": "getNewsDownVote",
      "outputs": [
        {
          "internalType": "address payable[]",
          "name": "",
          "type": "address[]"
        }
      ],
      "payable": false,
      "stateMutability": "view",
      "type": "function"
    },
    {
      "constant": true,
      "inputs": [
        {
          "internalType": "uint256",
          "name": "_id",
          "type": "uint256"
        }
      ],
      "name": "getNewsTags",
      "outputs": [
        {
          "internalType": "string[]",
          "name": "",
          "type": "string[]"
        }
      ],
      "payable": false,
      "stateMutability": "view",
      "type": "function"
    },
    {
      "constant": true,
      "inputs": [
        {
          "internalType": "string",
          "name": "_id",
          "type": "string"
        }
      ],
      "name": "getCommunityNews",
      "outputs": [
        {
          "internalType": "uint256[]",
          "name": "",
          "type": "uint256[]"
        }
      ],
      "payable": false,
      "stateMutability": "view",
      "type": "function"
    },
    {
      "constant": true,
      "inputs": [
        {
          "internalType": "string",
          "name": "_id",
          "type": "string"
        }
      ],
      "name": "getCommunityAuthors",
      "outputs": [
        {
          "internalType": "address[]",
          "name": "",
          "type": "address[]"
        }
      ],
      "payable": false,
      "stateMutability": "view",
      "type": "function"
    },
    {
      "constant": false,
      "inputs": [
        {
          "internalType": "uint256",
          "name": "_id",
          "type": "uint256"
        },
        {
          "internalType": "address payable[]",
          "name": "_addresses",
          "type": "address[]"
        }
      ],
      "name": "setUpVotes",
      "outputs": [],
      "payable": false,
      "stateMutability": "nonpayable",
      "type": "function"
    },
    {
      "constant": false,
      "inputs": [
        {
          "internalType": "uint256",
          "name": "_id",
          "type": "uint256"
        },
        {
          "internalType": "address payable[]",
          "name": "_addresses",
          "type": "address[]"
        }
      ],
      "name": "setDownVotes",
      "outputs": [],
      "payable": false,
      "stateMutability": "nonpayable",
      "type": "function"
    },
    {
      "constant": false,
      "inputs": [
        {
          "internalType": "string",
          "name": "_sender",
          "type": "string"
        },
        {
          "internalType": "string",
          "name": "_receiver",
          "type": "string"
        }
      ],
      "name": "tipAccount",
      "outputs": [],
      "payable": true,
      "stateMutability": "payable",
      "type": "function"
    }
  ],
  "bytecode": "0x608060405234801561001057600080fd5b50336000806101000a81548173ffffffffffffffffffffffffffffffffffffffff021916908373ffffffffffffffffffffffffffffffffffffffff160217905550600060018190555060006002819055506000600381905550614582806100786000396000f3fe6080604052600436106102045760003560e01c8063b3ae7b6411610118578063e6792922116100a0578063f6bd55ab1161006f578063f6bd55ab1461081a578063f78799ca14610857578063f851a44014610894578063fa2b2009146108bf578063fc060d44146108ea57610204565b8063e67929221461076f578063e688143114610798578063e890e05e146107c1578063f69b949a146107dd57610204565b8063c732d201116100e7578063c732d20114610699578063c9d27afe146106c4578063cedab0ec146106ed578063d0694f971461072a578063d5e3a8da1461074657610204565b8063b3ae7b64146105a5578063b6f2e1e4146105e2578063b94c296b1461061f578063ba53911b1461065c57610204565b80635e5c06e21161019b57806381b605a51161016a57806381b605a51461047f5780639490b8fb146104bc57806395d2f5f8146104f9578063a45d73ba14610522578063aa33bb101461056857610204565b80635e5c06e2146103b9578063628889e4146103f85780637178e29f146104145780637f1b55eb1461045457610204565b806348e8ebee116101d757806348e8ebee146102e95780634cf27023146103125780635368f8531461034f5780635a812bf71461039057610204565b80630548f5f1146102095780632b9ba2b2146102325780632dfe71931461026f57806334ebed62146102ac575b600080fd5b34801561021557600080fd5b50610230600480360361022b9190810190613451565b610913565b005b34801561023e57600080fd5b5061025960048036036102549190810190613726565b610a48565b6040516102669190613fb4565b60405180910390f35b34801561027b57600080fd5b50610296600480360361029191908101906136d2565b610b44565b6040516102a39190613ea9565b60405180910390f35b3480156102b857600080fd5b506102d360048036036102ce9190810190613303565b610ba5565b6040516102e09190613fd6565b60405180910390f35b3480156102f557600080fd5b50610310600480360361030b9190810190613511565b610c3c565b005b34801561031e57600080fd5b5061033960048036036103349190810190613726565b611136565b6040516103469190613f92565b60405180910390f35b34801561035b57600080fd5b50610376600480360361037191908101906133cf565b6111d7565b604051610387959493929190613f16565b60405180910390f35b34801561039c57600080fd5b506103b760048036036103b29190810190613653565b6112fb565b005b3480156103c557600080fd5b506103e060048036036103db9190810190613303565b61140b565b6040516103ef93929190613edf565b60405180910390f35b610412600480360361040d91908101906134a5565b611455565b005b34801561042057600080fd5b5061043b60048036036104369190810190613726565b61175d565b60405161044b9493929190613ff8565b60405180910390f35b34801561046057600080fd5b50610469611852565b6040516104769190614188565b60405180910390f35b34801561048b57600080fd5b506104a660048036036104a19190810190613726565b611858565b6040516104b39190613f92565b60405180910390f35b3480156104c857600080fd5b506104e360048036036104de9190810190613303565b6118f9565b6040516104f09190613fd6565b60405180910390f35b34801561050557600080fd5b50610520600480360361051b9190810190613368565b611990565b005b34801561052e57600080fd5b5061054960048036036105449190810190613726565b611cb4565b60405161055f9a999897969594939291906141a3565b60405180910390f35b34801561057457600080fd5b5061058f600480360361058a9190810190613410565b61202d565b60405161059c9190613fd6565b60405180910390f35b3480156105b157600080fd5b506105cc60048036036105c7919081019061385a565b6120a3565b6040516105d99190613ec4565b60405180910390f35b3480156105ee57600080fd5b5061060960048036036106049190810190613410565b6120ee565b6040516106169190613f70565b60405180910390f35b34801561062b57600080fd5b506106466004803603610641919081019061385a565b61219a565b6040516106539190614044565b60405180910390f35b34801561066857600080fd5b50610683600480360361067e9190810190613726565b612260565b6040516106909190614166565b60405180910390f35b3480156106a557600080fd5b506106ae612647565b6040516106bb9190614188565b60405180910390f35b3480156106d057600080fd5b506106eb60048036036106e691908101906137a3565b61264d565b005b3480156106f957600080fd5b50610714600480360361070f919081019061332c565b6127f0565b6040516107219190614188565b60405180910390f35b610744600480360361073f9190810190613726565b61281e565b005b34801561075257600080fd5b5061076d6004803603610768919081019061374f565b612961565b005b34801561077b57600080fd5b5061079660048036036107919190810190613410565b61298d565b005b3480156107a457600080fd5b506107bf60048036036107ba919081019061374f565b612b23565b005b6107db60048036036107d69190810190613726565b612b4f565b005b3480156107e957600080fd5b5061080460048036036107ff91908101906136d2565b612c92565b6040516108119190614188565b60405180910390f35b34801561082657600080fd5b50610841600480360361083c919081019061385a565b612cd6565b60405161084e9190613ec4565b60405180910390f35b34801561086357600080fd5b5061087e6004803603610879919081019061332c565b612d21565b60405161088b9190614188565b60405180910390f35b3480156108a057600080fd5b506108a9612d4f565b6040516108b69190613ea9565b60405180910390f35b3480156108cb57600080fd5b506108d4612d74565b6040516108e19190614188565b60405180910390f35b3480156108f657600080fd5b50610911600480360361090c91908101906137df565b612d7a565b005b3373ffffffffffffffffffffffffffffffffffffffff16600e8360405161093a9190613e92565b908152602001604051809103902060000160009054906101000a900473ffffffffffffffffffffffffffffffffffffffff1673ffffffffffffffffffffffffffffffffffffffff16146109c2576040517f08c379a00000000000000000000000000000000000000000000000000000000081526004016109b990614126565b60405180910390fd5b6010826040516109d29190613e92565b90815260200160405180910390208190806001815401808255809150509060018203906000526020600020016000909192909190916101000a81548173ffffffffffffffffffffffffffffffffffffffff021916908373ffffffffffffffffffffffffffffffffffffffff160217905550505050565b6060600d6000838152602001908152602001600020805480602002602001604051908101604052809291908181526020016000905b82821015610b39578382906000526020600020018054600181600116156101000203166002900480601f016020809104026020016040519081016040528092919081815260200182805460018160011615610100020316600290048015610b255780601f10610afa57610100808354040283529160200191610b25565b820191906000526020600020905b815481529060010190602001808311610b0857829003601f168201915b505050505081526020019060010190610a7d565b505050509050919050565b6010828051602081018201805184825260208301602085012081835280955050505050508181548110610b7357fe5b906000526020600020016000915091509054906101000a900473ffffffffffffffffffffffffffffffffffffffff1681565b6060600c60008373ffffffffffffffffffffffffffffffffffffffff1673ffffffffffffffffffffffffffffffffffffffff168152602001908152602001600020805480602002602001604051908101604052809291908181526020018280548015610c3057602002820191906000526020600020905b815481526020019060010190808311610c1c575b50505050509050919050565b600073ffffffffffffffffffffffffffffffffffffffff16600689604051610c649190613e92565b908152602001604051809103902060009054906101000a900473ffffffffffffffffffffffffffffffffffffffff1673ffffffffffffffffffffffffffffffffffffffff161415610ddd5733600689604051610cc09190613e92565b908152602001604051809103902060006101000a81548173ffffffffffffffffffffffffffffffffffffffff021916908373ffffffffffffffffffffffffffffffffffffffff16021790555060405180606001604052803373ffffffffffffffffffffffffffffffffffffffff168152602001600081526020016000815250600460003373ffffffffffffffffffffffffffffffffffffffff1673ffffffffffffffffffffffffffffffffffffffff16815260200190815260200160002060008201518160000160006101000a81548173ffffffffffffffffffffffffffffffffffffffff021916908373ffffffffffffffffffffffffffffffffffffffff16021790555060208201518160010155604082015181600201559050505b60405180610140016040528087815260200186815260200188815260200160015481526020013373ffffffffffffffffffffffffffffffffffffffff16815260200185815260200160008152602001848152602001831515815260200182815250600560006001548152602001908152602001600020600082015181600001556020820151816001019080519060200190610e79929190612f27565b506040820151816002019080519060200190610e96929190612f27565b506060820151816003015560808201518160040160006101000a81548173ffffffffffffffffffffffffffffffffffffffff021916908373ffffffffffffffffffffffffffffffffffffffff16021790555060a0820151816005019080519060200190610f04929190612f27565b5060c0820151816006015560e0820151816007019080519060200190610f2b929190612f27565b506101008201518160080160006101000a81548160ff021916908315150217905550610120820151816009019080519060200190610f6a929190612f27565b5090505060405180608001604052806000151581526020016001548152602001604051806020016040528060008152508152602001600073ffffffffffffffffffffffffffffffffffffffff1681525060076000600154815260200190815260200160002060008201518160000160006101000a81548160ff021916908315150217905550602082015181600101556040820151816002019080519060200190611015929190612f27565b5060608201518160030160006101000a81548173ffffffffffffffffffffffffffffffffffffffff021916908373ffffffffffffffffffffffffffffffffffffffff160217905550905050600a60003373ffffffffffffffffffffffffffffffffffffffff1673ffffffffffffffffffffffffffffffffffffffff1681526020019081526020016000206001549080600181540180825580915050906001820390600052602060002001600090919290919091505550811561111c57600f836040516110e19190613e92565b908152602001604051809103902060015490806001815401808255809150509060018203906000526020600020016000909192909190915055505b600180600082825401925050819055505050505050505050565b6060600960008381526020019081526020016000208054806020026020016040519081016040528092919081815260200182805480156111cb57602002820191906000526020600020905b8160009054906101000a900473ffffffffffffffffffffffffffffffffffffffff1673ffffffffffffffffffffffffffffffffffffffff1681526020019060010190808311611181575b50505050509050919050565b600b818051602081018201805184825260208301602085012081835280955050505050506000915090508060000160009054906101000a900473ffffffffffffffffffffffffffffffffffffffff16908060010160009054906101000a900473ffffffffffffffffffffffffffffffffffffffff1690806002015490806003018054600181600116156101000203166002900480601f0160208091040260200160405190810160405280929190818152602001828054600181600116156101000203166002900480156112eb5780601f106112c0576101008083540402835291602001916112eb565b820191906000526020600020905b8154815290600101906020018083116112ce57829003601f168201915b5050505050908060040154905085565b600b8360405161130b9190613e92565b908152602001604051809103902060010160009054906101000a900473ffffffffffffffffffffffffffffffffffffffff1673ffffffffffffffffffffffffffffffffffffffff163373ffffffffffffffffffffffffffffffffffffffff16146113aa576040517f08c379a00000000000000000000000000000000000000000000000000000000081526004016113a190614126565b60405180910390fd5b81600b846040516113bb9190613e92565b90815260200160405180910390206002018190555080600b846040516113e19190613e92565b90815260200160405180910390206003019080519060200190611405929190612fa7565b50505050565b60046020528060005260406000206000915090508060000160009054906101000a900473ffffffffffffffffffffffffffffffffffffffff16908060010154908060020154905083565b600073ffffffffffffffffffffffffffffffffffffffff1660068360405161147d9190613e92565b908152602001604051809103902060009054906101000a900473ffffffffffffffffffffffffffffffffffffffff1673ffffffffffffffffffffffffffffffffffffffff1614156115f657336006836040516114d99190613e92565b908152602001604051809103902060006101000a81548173ffffffffffffffffffffffffffffffffffffffff021916908373ffffffffffffffffffffffffffffffffffffffff16021790555060405180606001604052803373ffffffffffffffffffffffffffffffffffffffff168152602001600081526020016000815250600460003373ffffffffffffffffffffffffffffffffffffffff1673ffffffffffffffffffffffffffffffffffffffff16815260200190815260200160002060008201518160000160006101000a81548173ffffffffffffffffffffffffffffffffffffffff021916908373ffffffffffffffffffffffffffffffffffffffff16021790555060208201518160010155604082015181600201559050505b6006816040516116069190613e92565b908152602001604051809103902060009054906101000a900473ffffffffffffffffffffffffffffffffffffffff1673ffffffffffffffffffffffffffffffffffffffff166108fc349081150290604051600060405180830381858888f1935050505015801561167a573d6000803e3d6000fd5b5034600460006006846040516116909190613e92565b908152602001604051809103902060009054906101000a900473ffffffffffffffffffffffffffffffffffffffff1673ffffffffffffffffffffffffffffffffffffffff1673ffffffffffffffffffffffffffffffffffffffff1681526020019081526020016000206002016000828254019250508190555034600460003373ffffffffffffffffffffffffffffffffffffffff1673ffffffffffffffffffffffffffffffffffffffff168152602001908152602001600020600101600082825401925050819055505050565b60076020528060005260406000206000915090508060000160009054906101000a900460ff1690806001015490806002018054600181600116156101000203166002900480601f0160208091040260200160405190810160405280929190818152602001828054600181600116156101000203166002900480156118225780601f106117f757610100808354040283529160200191611822565b820191906000526020600020905b81548152906001019060200180831161180557829003601f168201915b5050505050908060030160009054906101000a900473ffffffffffffffffffffffffffffffffffffffff16905084565b60035481565b6060600860008381526020019081526020016000208054806020026020016040519081016040528092919081815260200182805480156118ed57602002820191906000526020600020905b8160009054906101000a900473ffffffffffffffffffffffffffffffffffffffff1673ffffffffffffffffffffffffffffffffffffffff16815260200190600101908083116118a3575b50505050509050919050565b6060600a60008373ffffffffffffffffffffffffffffffffffffffff1673ffffffffffffffffffffffffffffffffffffffff16815260200190815260200160002080548060200260200160405190810160405280929190818152602001828054801561198457602002820191906000526020600020905b815481526020019060010190808311611970575b50505050509050919050565b3373ffffffffffffffffffffffffffffffffffffffff166005600084815260200190815260200160002060040160009054906101000a900473ffffffffffffffffffffffffffffffffffffffff1673ffffffffffffffffffffffffffffffffffffffff1614611a34576040517f08c379a0000000000000000000000000000000000000000000000000000000008152600401611a2b90614106565b60405180910390fd5b611a4d8160405180602001604052806000815250612ece565b15611a8d576040517f08c379a0000000000000000000000000000000000000000000000000000000008152600401611a8490614066565b60405180910390fd5b6040518060a001604052803373ffffffffffffffffffffffffffffffffffffffff1681526020018473ffffffffffffffffffffffffffffffffffffffff168152602001600081526020016040518060400160405280600c81526020017f59657420546f2072656163740000000000000000000000000000000000000000815250815260200183815250600b82604051611b269190613e92565b908152602001604051809103902060008201518160000160006101000a81548173ffffffffffffffffffffffffffffffffffffffff021916908373ffffffffffffffffffffffffffffffffffffffff16021790555060208201518160010160006101000a81548173ffffffffffffffffffffffffffffffffffffffff021916908373ffffffffffffffffffffffffffffffffffffffff160217905550604082015181600201556060820151816003019080519060200190611be8929190612f27565b5060808201518160040155905050600c60008473ffffffffffffffffffffffffffffffffffffffff1673ffffffffffffffffffffffffffffffffffffffff168152602001908152602001600020829080600181540180825580915050906001820390600052602060002001600090919290919091505550600d6000838152602001908152602001600020819080600181540180825580915050906001820390600052602060002001600090919290919091509080519060200190611cad929190612fa7565b5050505050565b6005602052806000526040600020600091509050806000015490806001018054600181600116156101000203166002900480601f016020809104026020016040519081016040528092919081815260200182805460018160011615610100020316600290048015611d665780601f10611d3b57610100808354040283529160200191611d66565b820191906000526020600020905b815481529060010190602001808311611d4957829003601f168201915b505050505090806002018054600181600116156101000203166002900480601f016020809104026020016040519081016040528092919081815260200182805460018160011615610100020316600290048015611e045780601f10611dd957610100808354040283529160200191611e04565b820191906000526020600020905b815481529060010190602001808311611de757829003601f168201915b5050505050908060030154908060040160009054906101000a900473ffffffffffffffffffffffffffffffffffffffff1690806005018054600181600116156101000203166002900480601f016020809104026020016040519081016040528092919081815260200182805460018160011615610100020316600290048015611ece5780601f10611ea357610100808354040283529160200191611ece565b820191906000526020600020905b815481529060010190602001808311611eb157829003601f168201915b505050505090806006015490806007018054600181600116156101000203166002900480601f016020809104026020016040519081016040528092919081815260200182805460018160011615610100020316600290048015611f725780601f10611f4757610100808354040283529160200191611f72565b820191906000526020600020905b815481529060010190602001808311611f5557829003601f168201915b5050505050908060080160009054906101000a900460ff1690806009018054600181600116156101000203166002900480601f0160208091040260200160405190810160405280929190818152602001828054600181600116156101000203166002900480156120235780601f10611ff857610100808354040283529160200191612023565b820191906000526020600020905b81548152906001019060200180831161200657829003601f168201915b505050505090508a565b6060600f8260405161203f9190613e92565b908152602001604051809103902080548060200260200160405190810160405280929190818152602001828054801561209757602002820191906000526020600020905b815481526020019060010190808311612083575b50505050509050919050565b600960205281600052604060002081815481106120bc57fe5b906000526020600020016000915091509054906101000a900473ffffffffffffffffffffffffffffffffffffffff1681565b60606010826040516121009190613e92565b908152602001604051809103902080548060200260200160405190810160405280929190818152602001828054801561218e57602002820191906000526020600020905b8160009054906101000a900473ffffffffffffffffffffffffffffffffffffffff1673ffffffffffffffffffffffffffffffffffffffff1681526020019060010190808311612144575b50505050509050919050565b600d60205281600052604060002081815481106121b357fe5b90600052602060002001600091509150508054600181600116156101000203166002900480601f0160208091040260200160405190810160405280929190818152602001828054600181600116156101000203166002900480156122585780601f1061222d57610100808354040283529160200191612258565b820191906000526020600020905b81548152906001019060200180831161223b57829003601f168201915b505050505081565b612268613027565b600560008381526020019081526020016000206040518061014001604052908160008201548152602001600182018054600181600116156101000203166002900480601f01602080910402602001604051908101604052809291908181526020018280546001816001161561010002031660029004801561232a5780601f106122ff5761010080835404028352916020019161232a565b820191906000526020600020905b81548152906001019060200180831161230d57829003601f168201915b50505050508152602001600282018054600181600116156101000203166002900480601f0160208091040260200160405190810160405280929190818152602001828054600181600116156101000203166002900480156123cc5780601f106123a1576101008083540402835291602001916123cc565b820191906000526020600020905b8154815290600101906020018083116123af57829003601f168201915b50505050508152602001600382015481526020016004820160009054906101000a900473ffffffffffffffffffffffffffffffffffffffff1673ffffffffffffffffffffffffffffffffffffffff1673ffffffffffffffffffffffffffffffffffffffff168152602001600582018054600181600116156101000203166002900480601f0160208091040260200160405190810160405280929190818152602001828054600181600116156101000203166002900480156124ce5780601f106124a3576101008083540402835291602001916124ce565b820191906000526020600020905b8154815290600101906020018083116124b157829003601f168201915b5050505050815260200160068201548152602001600782018054600181600116156101000203166002900480601f01602080910402602001604051908101604052809291908181526020018280546001816001161561010002031660029004801561257a5780601f1061254f5761010080835404028352916020019161257a565b820191906000526020600020905b81548152906001019060200180831161255d57829003601f168201915b505050505081526020016008820160009054906101000a900460ff16151515158152602001600982018054600181600116156101000203166002900480601f0160208091040260200160405190810160405280929190818152602001828054600181600116156101000203166002900480156126375780601f1061260c57610100808354040283529160200191612637565b820191906000526020600020905b81548152906001019060200180831161261a57829003601f168201915b5050505050815250509050919050565b60015481565b3373ffffffffffffffffffffffffffffffffffffffff166005600084815260200190815260200160002060040160009054906101000a900473ffffffffffffffffffffffffffffffffffffffff1673ffffffffffffffffffffffffffffffffffffffff1614156126f2576040517f08c379a00000000000000000000000000000000000000000000000000000000081526004016126e9906140a6565b60405180910390fd5b801561277457600860008381526020019081526020016000203390806001815401808255809150509060018203906000526020600020016000909192909190916101000a81548173ffffffffffffffffffffffffffffffffffffffff021916908373ffffffffffffffffffffffffffffffffffffffff160217905550506127ec565b600960008381526020019081526020016000203390806001815401808255809150509060018203906000526020600020016000909192909190916101000a81548173ffffffffffffffffffffffffffffffffffffffff021916908373ffffffffffffffffffffffffffffffffffffffff160217905550505b5050565b600a602052816000526040600020818154811061280957fe5b90600052602060002001600091509150505481565b600060086000838152602001908152602001600020805490501415612878576040517f08c379a000000000000000000000000000000000000000000000000000000000815260040161286f90614146565b60405180910390fd5b60006008600083815260200190815260200160002080549050348161289957fe5b04905060008090505b600860008481526020019081526020016000208054905081101561295c576008600084815260200190815260200160002081815481106128de57fe5b9060005260206000200160009054906101000a900473ffffffffffffffffffffffffffffffffffffffff1673ffffffffffffffffffffffffffffffffffffffff166108fc839081150290604051600060405180830381858888f1935050505015801561294e573d6000803e3d6000fd5b5080806001019150506128a2565b505050565b80600960008481526020019081526020016000209080519060200190612988929190613092565b505050565b600073ffffffffffffffffffffffffffffffffffffffff16600e826040516129b59190613e92565b908152602001604051809103902060000160009054906101000a900473ffffffffffffffffffffffffffffffffffffffff1673ffffffffffffffffffffffffffffffffffffffff1614612a3d576040517f08c379a0000000000000000000000000000000000000000000000000000000008152600401612a34906140c6565b60405180910390fd5b60405180608001604052803373ffffffffffffffffffffffffffffffffffffffff168152602001828152602001600081526020016000815250600e82604051612a869190613e92565b908152602001604051809103902060008201518160000160006101000a81548173ffffffffffffffffffffffffffffffffffffffff021916908373ffffffffffffffffffffffffffffffffffffffff1602179055506020820151816001019080519060200190612af7929190612f27565b506040820151816002015560608201518160030155905050600160036000828254019250508190555050565b80600860008481526020019081526020016000209080519060200190612b4a929190613092565b505050565b600060096000838152602001908152602001600020805490501415612ba9576040517f08c379a0000000000000000000000000000000000000000000000000000000008152600401612ba090614086565b60405180910390fd5b600060096000838152602001908152602001600020805490503481612bca57fe5b04905060008090505b6009600084815260200190815260200160002080549050811015612c8d57600960008481526020019081526020016000208181548110612c0f57fe5b9060005260206000200160009054906101000a900473ffffffffffffffffffffffffffffffffffffffff1673ffffffffffffffffffffffffffffffffffffffff166108fc839081150290604051600060405180830381858888f19350505050158015612c7f573d6000803e3d6000fd5b508080600101915050612bd3565b505050565b600f828051602081018201805184825260208301602085012081835280955050505050508181548110612cc157fe5b90600052602060002001600091509150505481565b60086020528160005260406000208181548110612cef57fe5b906000526020600020016000915091509054906101000a900473ffffffffffffffffffffffffffffffffffffffff1681565b600c6020528160005260406000208181548110612d3a57fe5b90600052602060002001600091509150505481565b6000809054906101000a900473ffffffffffffffffffffffffffffffffffffffff1681565b60025481565b6000809054906101000a900473ffffffffffffffffffffffffffffffffffffffff1673ffffffffffffffffffffffffffffffffffffffff163373ffffffffffffffffffffffffffffffffffffffff1614612e09576040517f08c379a0000000000000000000000000000000000000000000000000000000008152600401612e00906140e6565b60405180910390fd5b806007600086815260200190815260200160002060000160006101000a81548160ff02191690831515021790555082600760008681526020019081526020016000206002019080519060200190612e61929190612fa7565b50816007600086815260200190815260200160002060030160006101000a81548173ffffffffffffffffffffffffffffffffffffffff021916908373ffffffffffffffffffffffffffffffffffffffff160217905550600160026000828254019250508190555050505050565b600081604051602001612ee19190613e92565b6040516020818303038152906040528051906020012083604051602001612f089190613e92565b6040516020818303038152906040528051906020012014905092915050565b828054600181600116156101000203166002900490600052602060002090601f016020900481019282601f10612f6857805160ff1916838001178555612f96565b82800160010185558215612f96579182015b82811115612f95578251825591602001919060010190612f7a565b5b509050612fa3919061311c565b5090565b828054600181600116156101000203166002900490600052602060002090601f016020900481019282601f10612fe857805160ff1916838001178555613016565b82800160010185558215613016579182015b82811115613015578251825591602001919060010190612ffa565b5b509050613023919061311c565b5090565b60405180610140016040528060008152602001606081526020016060815260200160008152602001600073ffffffffffffffffffffffffffffffffffffffff168152602001606081526020016000815260200160608152602001600015158152602001606081525090565b82805482825590600052602060002090810192821561310b579160200282015b8281111561310a5782518260006101000a81548173ffffffffffffffffffffffffffffffffffffffff021916908373ffffffffffffffffffffffffffffffffffffffff160217905550916020019190600101906130b2565b5b5090506131189190613141565b5090565b61313e91905b8082111561313a576000816000905550600101613122565b5090565b90565b61318191905b8082111561317d57600081816101000a81549073ffffffffffffffffffffffffffffffffffffffff021916905550600101613147565b5090565b90565b600081359050613193816144e3565b92915050565b6000813590506131a8816144fa565b92915050565b600082601f8301126131bf57600080fd5b81356131d26131cd8261428f565b614262565b915081818352602084019350602081019050838560208402820111156131f757600080fd5b60005b83811015613227578161320d8882613199565b8452602084019350602083019250506001810190506131fa565b5050505092915050565b60008135905061324081614511565b92915050565b600082601f83011261325757600080fd5b813561326a613265826142b7565b614262565b9150808252602083016020830185838301111561328657600080fd5b613291838284614490565b50505092915050565b600082601f8301126132ab57600080fd5b81356132be6132b9826142e3565b614262565b915080825260208301602083018583830111156132da57600080fd5b6132e5838284614490565b50505092915050565b6000813590506132fd81614528565b92915050565b60006020828403121561331557600080fd5b600061332384828501613184565b91505092915050565b6000806040838503121561333f57600080fd5b600061334d85828601613184565b925050602061335e858286016132ee565b9150509250929050565b60008060006060848603121561337d57600080fd5b600061338b86828701613184565b935050602061339c868287016132ee565b925050604084013567ffffffffffffffff8111156133b957600080fd5b6133c58682870161329a565b9150509250925092565b6000602082840312156133e157600080fd5b600082013567ffffffffffffffff8111156133fb57600080fd5b61340784828501613246565b91505092915050565b60006020828403121561342257600080fd5b600082013567ffffffffffffffff81111561343c57600080fd5b6134488482850161329a565b91505092915050565b6000806040838503121561346457600080fd5b600083013567ffffffffffffffff81111561347e57600080fd5b61348a8582860161329a565b925050602061349b85828601613184565b9150509250929050565b600080604083850312156134b857600080fd5b600083013567ffffffffffffffff8111156134d257600080fd5b6134de8582860161329a565b925050602083013567ffffffffffffffff8111156134fb57600080fd5b6135078582860161329a565b9150509250929050565b600080600080600080600080610100898b03121561352e57600080fd5b600089013567ffffffffffffffff81111561354857600080fd5b6135548b828c0161329a565b985050602089013567ffffffffffffffff81111561357157600080fd5b61357d8b828c0161329a565b975050604061358e8b828c016132ee565b965050606089013567ffffffffffffffff8111156135ab57600080fd5b6135b78b828c0161329a565b955050608089013567ffffffffffffffff8111156135d457600080fd5b6135e08b828c0161329a565b94505060a089013567ffffffffffffffff8111156135fd57600080fd5b6136098b828c0161329a565b93505060c061361a8b828c01613231565b92505060e089013567ffffffffffffffff81111561363757600080fd5b6136438b828c0161329a565b9150509295985092959890939650565b60008060006060848603121561366857600080fd5b600084013567ffffffffffffffff81111561368257600080fd5b61368e8682870161329a565b935050602061369f868287016132ee565b925050604084013567ffffffffffffffff8111156136bc57600080fd5b6136c88682870161329a565b9150509250925092565b600080604083850312156136e557600080fd5b600083013567ffffffffffffffff8111156136ff57600080fd5b61370b85828601613246565b925050602061371c858286016132ee565b9150509250929050565b60006020828403121561373857600080fd5b6000613746848285016132ee565b91505092915050565b6000806040838503121561376257600080fd5b6000613770858286016132ee565b925050602083013567ffffffffffffffff81111561378d57600080fd5b613799858286016131ae565b9150509250929050565b600080604083850312156137b657600080fd5b60006137c4858286016132ee565b92505060206137d585828601613231565b9150509250929050565b600080600080608085870312156137f557600080fd5b6000613803878288016132ee565b945050602085013567ffffffffffffffff81111561382057600080fd5b61382c8782880161329a565b935050604061383d87828801613184565b925050606061384e87828801613231565b91505092959194509250565b6000806040838503121561386d57600080fd5b600061387b858286016132ee565b925050602061388c858286016132ee565b9150509250929050565b60006138a283836138f2565b60208301905092915050565b60006138ba8383613910565b60208301905092915050565b60006138d28383613b0c565b905092915050565b60006138e68383613e74565b60208301905092915050565b6138fb81614448565b82525050565b61390a81614448565b82525050565b61391981614436565b82525050565b61392881614436565b82525050565b60006139398261434f565b61394381856143c5565b935061394e8361430f565b8060005b8381101561397f57815161396688826138ae565b975061397183614391565b925050600181019050613952565b5085935050505092915050565b60006139978261435a565b6139a181856143d6565b93506139ac8361431f565b8060005b838110156139dd5781516139c48882613896565b97506139cf8361439e565b9250506001810190506139b0565b5085935050505092915050565b60006139f582614365565b6139ff81856143e7565b935083602082028501613a118561432f565b8060005b85811015613a4d5784840389528151613a2e85826138c6565b9450613a39836143ab565b925060208a01995050600181019050613a15565b50829750879550505050505092915050565b6000613a6a82614370565b613a7481856143f8565b9350613a7f8361433f565b8060005b83811015613ab0578151613a9788826138da565b9750613aa2836143b8565b925050600181019050613a83565b5085935050505092915050565b613ac68161445a565b82525050565b613ad58161445a565b82525050565b6000613ae682614386565b613af0818561442b565b9350613b0081856020860161449f565b80840191505092915050565b6000613b178261437b565b613b218185614409565b9350613b3181856020860161449f565b613b3a816144d2565b840191505092915050565b6000613b508261437b565b613b5a818561441a565b9350613b6a81856020860161449f565b613b73816144d2565b840191505092915050565b6000613b8b60148361441a565b91507f7461672069642063616e7420626520656d7074790000000000000000000000006000830152602082019050919050565b6000613bcb60138361441a565b91507f6e6f20646f776e766f7465727320666f756e64000000000000000000000000006000830152602082019050919050565b6000613c0b60128361441a565b91507f617574686f722063616e6e6f7420766f746500000000000000000000000000006000830152602082019050919050565b6000613c4b60178361441a565b91507f636f6d6d756e69747920616c72656164792065786973740000000000000000006000830152602082019050919050565b6000613c8b60128361441a565b91507f596f7520617265206e6f742061646d696e2100000000000000000000000000006000830152602082019050919050565b6000613ccb601a8361441a565b91507f617574686f72206f6e6c792063616e207461672070656f706c650000000000006000830152602082019050919050565b6000613d0b600d8361441a565b91507f4163636573732064656e696564000000000000000000000000000000000000006000830152602082019050919050565b6000613d4b60118361441a565b91507f6e6f207570766f7465727320666f756e640000000000000000000000000000006000830152602082019050919050565b600061014083016000830151613d976000860182613e74565b5060208301518482036020860152613daf8282613b0c565b91505060408301518482036040860152613dc98282613b0c565b9150506060830151613dde6060860182613e74565b506080830151613df16080860182613910565b5060a083015184820360a0860152613e098282613b0c565b91505060c0830151613e1e60c0860182613e74565b5060e083015184820360e0860152613e368282613b0c565b915050610100830151613e4d610100860182613abd565b50610120830151848203610120860152613e678282613b0c565b9150508091505092915050565b613e7d81614486565b82525050565b613e8c81614486565b82525050565b6000613e9e8284613adb565b915081905092915050565b6000602082019050613ebe600083018461391f565b92915050565b6000602082019050613ed96000830184613901565b92915050565b6000606082019050613ef46000830186613901565b613f016020830185613e83565b613f0e6040830184613e83565b949350505050565b600060a082019050613f2b600083018861391f565b613f38602083018761391f565b613f456040830186613e83565b8181036060830152613f578185613b45565b9050613f666080830184613e83565b9695505050505050565b60006020820190508181036000830152613f8a818461392e565b905092915050565b60006020820190508181036000830152613fac818461398c565b905092915050565b60006020820190508181036000830152613fce81846139ea565b905092915050565b60006020820190508181036000830152613ff08184613a5f565b905092915050565b600060808201905061400d6000830187613acc565b61401a6020830186613e83565b818103604083015261402c8185613b45565b905061403b606083018461391f565b95945050505050565b6000602082019050818103600083015261405e8184613b45565b905092915050565b6000602082019050818103600083015261407f81613b7e565b9050919050565b6000602082019050818103600083015261409f81613bbe565b9050919050565b600060208201905081810360008301526140bf81613bfe565b9050919050565b600060208201905081810360008301526140df81613c3e565b9050919050565b600060208201905081810360008301526140ff81613c7e565b9050919050565b6000602082019050818103600083015261411f81613cbe565b9050919050565b6000602082019050818103600083015261413f81613cfe565b9050919050565b6000602082019050818103600083015261415f81613d3e565b9050919050565b600060208201905081810360008301526141808184613d7e565b905092915050565b600060208201905061419d6000830184613e83565b92915050565b6000610140820190506141b9600083018d613e83565b81810360208301526141cb818c613b45565b905081810360408301526141df818b613b45565b90506141ee606083018a613e83565b6141fb608083018961391f565b81810360a083015261420d8188613b45565b905061421c60c0830187613e83565b81810360e083015261422e8186613b45565b905061423e610100830185613acc565b8181036101208301526142518184613b45565b90509b9a5050505050505050505050565b6000604051905081810181811067ffffffffffffffff8211171561428557600080fd5b8060405250919050565b600067ffffffffffffffff8211156142a657600080fd5b602082029050602081019050919050565b600067ffffffffffffffff8211156142ce57600080fd5b601f19601f8301169050602081019050919050565b600067ffffffffffffffff8211156142fa57600080fd5b601f19601f8301169050602081019050919050565b6000819050602082019050919050565b6000819050602082019050919050565b6000819050602082019050919050565b6000819050602082019050919050565b600081519050919050565b600081519050919050565b600081519050919050565b600081519050919050565b600081519050919050565b600081519050919050565b6000602082019050919050565b6000602082019050919050565b6000602082019050919050565b6000602082019050919050565b600082825260208201905092915050565b600082825260208201905092915050565b600082825260208201905092915050565b600082825260208201905092915050565b600082825260208201905092915050565b600082825260208201905092915050565b600081905092915050565b600061444182614466565b9050919050565b600061445382614466565b9050919050565b60008115159050919050565b600073ffffffffffffffffffffffffffffffffffffffff82169050919050565b6000819050919050565b82818337600083830152505050565b60005b838110156144bd5780820151818401526020810190506144a2565b838111156144cc576000848401525b50505050565b6000601f19601f8301169050919050565b6144ec81614436565b81146144f757600080fd5b50565b61450381614448565b811461450e57600080fd5b50565b61451a8161445a565b811461452557600080fd5b50565b61453181614486565b811461453c57600080fd5b5056fea365627a7a72315820c8629d4da363a246ed87eae9d0a69f959987f78f30218dae45b16bf35f1a7dc56c6578706572696d656e74616cf564736f6c63430005100040",
  "source": "pragma solidity ^0.5.0;\npragma experimental ABIEncoderV2;\n\ncontract main {\n    address public admin;\n    uint256 public currentCount;\n    uint256 public banCount;\n    uint256 public communityNumber;\n    struct news {\n        uint256 timestamp;\n        string descreption;\n        string title;\n        uint256 id;\n        address author;\n        string categories;\n        uint256 donations;\n        string communityId;\n        bool communityNews;\n        string ipfsImage;\n    }\n\n    struct account {\n        address payable author;\n        uint256 donated;\n        uint256 received;\n    }\n    struct community {\n        address payable leader;\n        string communityId;\n        uint256 newsCount;\n        uint256 totalDonation;\n    }\n    struct tag {\n        address author;\n        address taggedPerson;\n        uint256 react;\n        string taggedPersonDescreption;\n        uint256 newsId;\n    }\n\n    struct flag {\n        bool status;\n        uint256 newsId;\n        string reason;\n        address informer;\n    }\n    mapping(address => account) public accounts;\n    mapping(uint256 => news) public newsById;\n    mapping(string => address payable) addresses;\n    mapping(uint256 => flag) public bannedNews;\n    mapping(uint256 => address payable[]) public newsUpVote;\n    mapping(uint256 => address payable[]) public newsDownVote;\n    mapping(address => uint256[]) public newsForAuthor;\n    mapping(string => tag) public tags;\n    mapping(address => uint256[]) public newsForAccounts;\n    mapping(uint256 => string[]) public tagForNews;\n    mapping(string => community) communities;\n    mapping(string => uint256[]) public communityNews;\n    mapping(string => address[]) public communityAuthors;\n\n    constructor() public {\n        admin = msg.sender;\n        currentCount = 0;\n        banCount = 0;\n        communityNumber = 0;\n    }\n\n    function string_check(string memory str1, string memory str2)\n        internal\n        pure\n        returns (bool)\n    {\n        return (keccak256(abi.encodePacked(str1)) ==\n            keccak256(abi.encodePacked(str2)));\n    }\n\n    function createNews(\n        string memory _hashedaddr,\n        string memory _title,\n        uint256 _time,\n        string memory _descreption,\n        string memory _categories,\n        string memory _community,\n        bool _iscommunitynews,\n        string memory _ipfsImage\n    ) public {\n        if (addresses[_hashedaddr] == address(0)) {\n            addresses[_hashedaddr] = msg.sender;\n            accounts[msg.sender] = account(msg.sender, 0, 0);\n        }\n        newsById[currentCount] = news(\n            _time,\n            _descreption,\n            _title,\n            currentCount,\n            msg.sender,\n            _categories,\n            0,\n            _community,\n            _iscommunitynews,\n            _ipfsImage\n        );\n        bannedNews[currentCount] = flag(false, currentCount, \"\", address(0));\n        newsForAuthor[msg.sender].push(currentCount);\n        if (_iscommunitynews) communityNews[_community].push(currentCount);\n        currentCount += 1;\n    }\n\n    function tagRelatedPeople(\n        address _taggedPerson,\n        uint256 _newsId,\n        string memory _tagId\n    ) public {\n        require(\n            newsById[_newsId].author == msg.sender,\n            \"author only can tag people\"\n        );\n        require(!string_check(_tagId, \"\"), \"tag id cant be empty\");\n        tags[_tagId] = tag(\n            msg.sender,\n            _taggedPerson,\n            0,\n            \"Yet To react\",\n            _newsId\n        );\n        newsForAccounts[_taggedPerson].push(_newsId);\n        tagForNews[_newsId].push(_tagId);\n    }\n\n    function changeTagDetails(\n        string memory _tagId,\n        uint256 _reactId,\n        string memory _descreption\n    ) public {\n        require(msg.sender == tags[_tagId].taggedPerson, \"Access denied\");\n        tags[_tagId].react = _reactId;\n        tags[_tagId].taggedPersonDescreption = _descreption;\n    }\n\n    function banNews(\n        uint256 _newsId,\n        string memory _reason,\n        address _informer,\n        bool _status\n    ) public {\n        require(msg.sender == admin, \"You are not admin!\");\n        bannedNews[_newsId].status = _status;\n        bannedNews[_newsId].reason = _reason;\n        bannedNews[_newsId].informer = _informer;\n        banCount += 1;\n    }\n\n    function createCommunity(string memory _communityId) public {\n        require(\n            communities[_communityId].leader == address(0),\n            \"community already exist\"\n        );\n        communities[_communityId] = community(msg.sender, _communityId, 0, 0);\n        communityNumber += 1;\n    }\n\n    function addAuthorToCommunity(string memory _communityId, address _author)\n        public\n    {\n        require(\n            communities[_communityId].leader == msg.sender,\n            \"Access denied\"\n        );\n        communityAuthors[_communityId].push(_author);\n    }\n\n    function vote(uint256 _newsId, bool isUpVote) public {\n        require(newsById[_newsId].author != msg.sender, \"author cannot vote\");\n        if (isUpVote) newsUpVote[_newsId].push(msg.sender);\n        else newsDownVote[_newsId].push(msg.sender);\n    }\n\n    function payUpVoters(uint256 _newsId) public payable {\n        require(newsUpVote[_newsId].length != 0, \"no upvoters found\");\n        uint256 transferAmount = msg.value / newsUpVote[_newsId].length;\n        for (uint256 vote = 0; vote < newsUpVote[_newsId].length; vote++) {\n            newsUpVote[_newsId][vote].transfer(transferAmount);\n        }\n    }\n\n    function payDownVoters(uint256 _newsId) public payable {\n        require(newsDownVote[_newsId].length != 0, \"no downvoters found\");\n        uint256 transferAmount = msg.value / newsDownVote[_newsId].length;\n        for (uint256 vote = 0; vote < newsDownVote[_newsId].length; vote++) {\n            newsDownVote[_newsId][vote].transfer(transferAmount);\n        }\n    }\n\n    function getAuthorNews(address _id) public view returns (uint256[] memory) {\n        return newsForAuthor[_id];\n    }\n\n    function getAccountNews(address _id)\n        public\n        view\n        returns (uint256[] memory)\n    {\n        return newsForAccounts[_id];\n    }\n\n    function getNews(uint256 _id) public view returns (news memory) {\n        return newsById[_id];\n    }\n\n    function getNewsUpVote(uint256 _id)\n        public\n        view\n        returns (address payable[] memory)\n    {\n        return newsUpVote[_id];\n    }\n\n    function getNewsDownVote(uint256 _id)\n        public\n        view\n        returns (address payable[] memory)\n    {\n        return newsDownVote[_id];\n    }\n\n    function getNewsTags(uint256 _id) public view returns (string[] memory) {\n        return tagForNews[_id];\n    }\n\n    function getCommunityNews(string memory _id)\n        public\n        view\n        returns (uint256[] memory)\n    {\n        return communityNews[_id];\n    }\n\n    function getCommunityAuthors(string memory _id)\n        public\n        view\n        returns (address[] memory)\n    {\n        return communityAuthors[_id];\n    }\n\n    function setUpVotes(uint256 _id, address payable[] memory _addresses)\n        public\n    {\n        newsUpVote[_id] = _addresses;\n    }\n\n    function setDownVotes(uint256 _id, address payable[] memory _addresses)\n        public\n    {\n        newsDownVote[_id] = _addresses;\n    }\n\n    function tipAccount(string memory _sender, string memory _receiver)\n        public\n        payable\n    {\n        if (addresses[_sender] == address(0)) {\n            addresses[_sender] = msg.sender;\n            accounts[msg.sender] = account(msg.sender, 0, 0);\n        }\n        (addresses[_receiver]).transfer(msg.value);\n        accounts[addresses[_receiver]].received += msg.value;\n        accounts[msg.sender].donated += msg.value;\n    }\n}\n",
  "sourcePath": "C:/Users/yosiv/Desktop/fourth-pillar-master/src/contracts/main.sol",
  "compiler": {
    "name": "solc",
    "version": "0.5.16+commit.9c3226ce.Emscripten.clang"
  },
  "schemaVersion": "3.3.4",
  "updatedAt": "2021-05-02T18:12:23.621Z",
  "networkType": "ethereum",
  "devdoc": {
    "methods": {}
  },
  "userdoc": {
    "methods": {}
  }
}